:100000000C942A000C943F000C943F000C943F0089
:100010000C943F000C943F000C943F000C943F0064
:100020000C943F000C943F000C943F000C943F0054
:100030000C943F000C943F000C943F000C943F0044
:100040000C943F000C943F000C943F000C943F0034
:100050000C943F0011241FBECFE5D8E0DEBFCDBF1A
:1000600010E0A0E6B0E0E4EDF1E002C005900D92F2
:10007000AA36B107D9F70E9441000C94E8000C940D
:100080000000DF93CF93CDB7DEB761970FB6F8943A
:10009000DEBF0FBECDBFCE0103969E878D87E0E603
:1000A000F0E0F88BEF87FAE0F98BEF85F8890080B4
:1000B0008F8598890196988B8F87ED85FE850082C4
:1000C0008D859E8501969E878D8799899150998B04
:1000D000E989EE2351F7AAE3B0E0EAE3F0E080819A
:1000E0008E7F8C93AAE3B0E0EAE3F0E080818D7F1D
:1000F0008C93ABE3B0E0EBE3F0E0808181608C9324
:10010000ABE3B0E0EBE3F0E0808182608C93E7E367
:10011000F0E08FEF8083E8E3F0E08FE380831A82E2
:100120001982E9E3F0E08081882F90E0817090707F
:10013000009719F589819A8101969A83898389812B
:100140009A818A30910524F089E090E09A8389832E
:10015000A8E3B0E029813A81CE010396FC01E20FC9
:10016000F31F80818C93E9E3F0E08081882F90E099
:10017000817090700097B9F3D4CFE9E3F0E080810B
:100180008695882F90E081709070009751F6898154
:100190009A8101979A83898389819A81992314F49A
:1001A0001A821982A8E3B0E029813A81CE01039630
:1001B000FC01E20FF31F80818C93E9E3F0E0808182
:1001C0008695882F90E0817090700097B1F3A9CF49
:0401D000F894FFCFD1
:0A01D4003F065B4F666D7D077F6FED
:00000001FF
